{
  "_format": "hh-sol-artifact-1",
  "contractName": "project",
  "sourceName": "contracts/Project.sol",
  "abi": [
    {
      "inputs": [],
      "stateMutability": "nonpayable",
      "type": "constructor"
    },
    {
      "inputs": [
        {
          "internalType": "string",
          "name": "_adminname",
          "type": "string"
        },
        {
          "internalType": "uint256",
          "name": "_adminage",
          "type": "uint256"
        },
        {
          "internalType": "address",
          "name": "_adminaddressofcontract",
          "type": "address"
        },
        {
          "internalType": "string",
          "name": "_admincity",
          "type": "string"
        }
      ],
      "name": "Addadmin",
      "outputs": [],
      "stateMutability": "nonpayable",
      "type": "function"
    },
    {
      "inputs": [
        {
          "internalType": "string",
          "name": "_ownernamep",
          "type": "string"
        },
        {
          "internalType": "string",
          "name": "_ownercarsp",
          "type": "string"
        },
        {
          "internalType": "address",
          "name": "_owneraddressp",
          "type": "address"
        }
      ],
      "name": "addowner",
      "outputs": [],
      "stateMutability": "nonpayable",
      "type": "function"
    },
    {
      "inputs": [
        {
          "internalType": "address",
          "name": "",
          "type": "address"
        },
        {
          "internalType": "string",
          "name": "",
          "type": "string"
        }
      ],
      "name": "admin_owner",
      "outputs": [
        {
          "internalType": "string",
          "name": "ownername",
          "type": "string"
        },
        {
          "internalType": "string",
          "name": "ownercarsname",
          "type": "string"
        },
        {
          "internalType": "address",
          "name": "owneraddress",
          "type": "address"
        },
        {
          "internalType": "string",
          "name": "role",
          "type": "string"
        },
        {
          "internalType": "address",
          "name": "adminaddressowner",
          "type": "address"
        }
      ],
      "stateMutability": "view",
      "type": "function"
    },
    {
      "inputs": [
        {
          "internalType": "address",
          "name": "",
          "type": "address"
        }
      ],
      "name": "admins",
      "outputs": [
        {
          "internalType": "string",
          "name": "name",
          "type": "string"
        },
        {
          "internalType": "uint256",
          "name": "age",
          "type": "uint256"
        },
        {
          "internalType": "address",
          "name": "adminaddress",
          "type": "address"
        },
        {
          "internalType": "string",
          "name": "city",
          "type": "string"
        },
        {
          "internalType": "string",
          "name": "role",
          "type": "string"
        }
      ],
      "stateMutability": "view",
      "type": "function"
    },
    {
      "inputs": [],
      "name": "no_of_admins",
      "outputs": [
        {
          "internalType": "uint256",
          "name": "",
          "type": "uint256"
        }
      ],
      "stateMutability": "view",
      "type": "function"
    },
    {
      "inputs": [],
      "name": "no_of_owners",
      "outputs": [
        {
          "internalType": "uint256",
          "name": "",
          "type": "uint256"
        }
      ],
      "stateMutability": "view",
      "type": "function"
    },
    {
      "inputs": [],
      "name": "noofcarsadmin",
      "outputs": [
        {
          "internalType": "uint256",
          "name": "",
          "type": "uint256"
        }
      ],
      "stateMutability": "view",
      "type": "function"
    },
    {
      "inputs": [
        {
          "internalType": "address",
          "name": "",
          "type": "address"
        }
      ],
      "name": "owners",
      "outputs": [
        {
          "internalType": "string",
          "name": "ownername",
          "type": "string"
        },
        {
          "internalType": "string",
          "name": "ownercarsname",
          "type": "string"
        },
        {
          "internalType": "address",
          "name": "owneraddress",
          "type": "address"
        },
        {
          "internalType": "string",
          "name": "role",
          "type": "string"
        },
        {
          "internalType": "address",
          "name": "adminaddressowner",
          "type": "address"
        }
      ],
      "stateMutability": "view",
      "type": "function"
    },
    {
      "inputs": [],
      "name": "superadminaddress",
      "outputs": [
        {
          "internalType": "address",
          "name": "",
          "type": "address"
        }
      ],
      "stateMutability": "view",
      "type": "function"
    },
    {
      "inputs": [],
      "name": "supradminname",
      "outputs": [
        {
          "internalType": "string",
          "name": "",
          "type": "string"
        }
      ],
      "stateMutability": "view",
      "type": "function"
    }
  ],
  "bytecode": "0x60806040523480156200001157600080fd5b50600080546001600160a01b03191633179055604080518082019091526012815271416469747961205375727961776e6173686960701b60208201526001906200005c908262000108565b50620001d4565b634e487b7160e01b600052604160045260246000fd5b600181811c908216806200008e57607f821691505b602082108103620000af57634e487b7160e01b600052602260045260246000fd5b50919050565b601f8211156200010357600081815260208120601f850160051c81016020861015620000de5750805b601f850160051c820191505b81811015620000ff57828155600101620000ea565b5050505b505050565b81516001600160401b0381111562000124576200012462000063565b6200013c8162000135845462000079565b84620000b5565b602080601f8311600181146200017457600084156200015b5750858301515b600019600386901b1c1916600185901b178555620000ff565b600085815260208120601f198616915b82811015620001a55788860151825594840194600190910190840162000184565b5085821015620001c45787850151600019600388901b60f8161c191681555b5050505050600190811b01905550565b610e9b80620001e46000396000f3fe608060405234801561001057600080fd5b506004361061009e5760003560e01c8063b51f70fe11610066578063b51f70fe14610131578063c1e03c9314610148578063d6a6070e1461015b578063d9e7b08314610164578063fca3ff881461016d57600080fd5b8063022914a7146100a35780633fd622bb146100d0578063429b62e5146100e3578063a8e3496314610107578063b4368a721461011c575b600080fd5b6100b66100b13660046109b6565b610198565b6040516100c7959493929190610a28565b60405180910390f35b6100b66100de366004610b2b565b610376565b6100f66100f13660046109b6565b6103ad565b6040516100c7959493929190610b79565b61010f610581565b6040516100c79190610bd4565b61012f61012a366004610be7565b61060f565b005b61013a60025481565b6040519081526020016100c7565b61012f610156366004610c5b565b610851565b61013a60045481565b61013a60035481565b600054610180906001600160a01b031681565b6040516001600160a01b0390911681526020016100c7565b6006602052600090815260409020805481906101b390610cd9565b80601f01602080910402602001604051908101604052809291908181526020018280546101df90610cd9565b801561022c5780601f106102015761010080835404028352916020019161022c565b820191906000526020600020905b81548152906001019060200180831161020f57829003601f168201915b50505050509080600101805461024190610cd9565b80601f016020809104026020016040519081016040528092919081815260200182805461026d90610cd9565b80156102ba5780601f1061028f576101008083540402835291602001916102ba565b820191906000526020600020905b81548152906001019060200180831161029d57829003601f168201915b505050600284015460038501805494956001600160a01b039092169491935091506102e490610cd9565b80601f016020809104026020016040519081016040528092919081815260200182805461031090610cd9565b801561035d5780601f106103325761010080835404028352916020019161035d565b820191906000526020600020905b81548152906001019060200180831161034057829003601f168201915b505050600490930154919250506001600160a01b031685565b600760209081526000928352604090922081518083018401805192815290840192909301919091209152805481906101b390610cd9565b6005602052600090815260409020805481906103c890610cd9565b80601f01602080910402602001604051908101604052809291908181526020018280546103f490610cd9565b80156104415780601f1061041657610100808354040283529160200191610441565b820191906000526020600020905b81548152906001019060200180831161042457829003601f168201915b5050505060018301546002840154600385018054949592946001600160a01b0390921693509061047090610cd9565b80601f016020809104026020016040519081016040528092919081815260200182805461049c90610cd9565b80156104e95780601f106104be576101008083540402835291602001916104e9565b820191906000526020600020905b8154815290600101906020018083116104cc57829003601f168201915b5050505050908060040180546104fe90610cd9565b80601f016020809104026020016040519081016040528092919081815260200182805461052a90610cd9565b80156105775780601f1061054c57610100808354040283529160200191610577565b820191906000526020600020905b81548152906001019060200180831161055a57829003601f168201915b5050505050905085565b6001805461058e90610cd9565b80601f01602080910402602001604051908101604052809291908181526020018280546105ba90610cd9565b80156106075780601f106105dc57610100808354040283529160200191610607565b820191906000526020600020905b8154815290600101906020018083116105ea57829003601f168201915b505050505081565b336000818152600560205260409020600201546001600160a01b03161461067d5760405162461bcd60e51b815260206004820152601e60248201527f596f75204d7573742042652041646d696e20546f20416464204f776e6572000060448201526064015b60405180910390fd5b6040805160a08101825284815260208082018590526001600160a01b038085168385018190528451808601865260058082526427bbb732b960d91b8286015260608601919091523360009081529084528581206002015490921660808501528152600690915291909120815182919081906106f89082610d62565b506020820151600182019061070d9082610d62565b5060408201516002820180546001600160a01b0319166001600160a01b03909216919091179055606082015160038201906107489082610d62565b5060809190910151600490910180546001600160a01b0319166001600160a01b039283161790553360009081526005602090815260408083206002015490931682526007905281902090518291906107a1908790610e22565b908152604051908190036020019020815181906107be9082610d62565b50602082015160018201906107d39082610d62565b5060408201516002820180546001600160a01b0319166001600160a01b039092169190911790556060820151600382019061080e9082610d62565b5060809190910151600491820180546001600160a01b0319166001600160a01b03909216919091179055805490600061084683610e3e565b919050555050505050565b6000546001600160a01b031633146108b75760405162461bcd60e51b815260206004820152602360248201527f596f75206d75737420626520737570657261646d696e20746f2061646420616460448201526236b4b760e91b6064820152608401610674565b6040805160a08101825285815260208082018690526001600160a01b038516828401819052606083018590528351808501855260058082526420b236b4b760d91b828501526080850191909152600091825290915291909120815182919081906109219082610d62565b506020820151600182015560408201516002820180546001600160a01b0319166001600160a01b03909216919091179055606082015160038201906109669082610d62565b506080820151600482019061097b9082610d62565b5050600380549150600061098e83610e3e565b91905055505050505050565b80356001600160a01b03811681146109b157600080fd5b919050565b6000602082840312156109c857600080fd5b6109d18261099a565b9392505050565b60005b838110156109f35781810151838201526020016109db565b50506000910152565b60008151808452610a148160208601602086016109d8565b601f01601f19169290920160200192915050565b60a081526000610a3b60a08301886109fc565b8281036020840152610a4d81886109fc565b6001600160a01b0387811660408601528482036060860152909150610a7282876109fc565b9250808516608085015250509695505050505050565b634e487b7160e01b600052604160045260246000fd5b600082601f830112610aaf57600080fd5b813567ffffffffffffffff80821115610aca57610aca610a88565b604051601f8301601f19908116603f01168101908282118183101715610af257610af2610a88565b81604052838152866020858801011115610b0b57600080fd5b836020870160208301376000602085830101528094505050505092915050565b60008060408385031215610b3e57600080fd5b610b478361099a565b9150602083013567ffffffffffffffff811115610b6357600080fd5b610b6f85828601610a9e565b9150509250929050565b60a081526000610b8c60a08301886109fc565b602083018790526001600160a01b03861660408401528281036060840152610bb481866109fc565b90508281036080840152610bc881856109fc565b98975050505050505050565b6020815260006109d160208301846109fc565b600080600060608486031215610bfc57600080fd5b833567ffffffffffffffff80821115610c1457600080fd5b610c2087838801610a9e565b94506020860135915080821115610c3657600080fd5b50610c4386828701610a9e565b925050610c526040850161099a565b90509250925092565b60008060008060808587031215610c7157600080fd5b843567ffffffffffffffff80821115610c8957600080fd5b610c9588838901610a9e565b955060208701359450610caa6040880161099a565b93506060870135915080821115610cc057600080fd5b50610ccd87828801610a9e565b91505092959194509250565b600181811c90821680610ced57607f821691505b602082108103610d0d57634e487b7160e01b600052602260045260246000fd5b50919050565b601f821115610d5d57600081815260208120601f850160051c81016020861015610d3a5750805b601f850160051c820191505b81811015610d5957828155600101610d46565b5050505b505050565b815167ffffffffffffffff811115610d7c57610d7c610a88565b610d9081610d8a8454610cd9565b84610d13565b602080601f831160018114610dc55760008415610dad5750858301515b600019600386901b1c1916600185901b178555610d59565b600085815260208120601f198616915b82811015610df457888601518255948401946001909101908401610dd5565b5085821015610e125787850151600019600388901b60f8161c191681555b5050505050600190811b01905550565b60008251610e348184602087016109d8565b9190910192915050565b600060018201610e5e57634e487b7160e01b600052601160045260246000fd5b506001019056fea2646970667358221220bcdc807bad7ac0c5991541fc4571a4f61c1f66033e5233414cbea429ff5279ce64736f6c63430008110033",
  "linkReferences": {},
  "deployedLinkReferences": {}
}